:020000040800F2
:100000008007002045010008391F00083B1F000839
:100010003F1F0008431F0008471F000800000000A2
:100020000000000000000000000000004B1F00085E
:100030004D1F0008000000004F1F0008511F00085E
:100040005F0100085F0100085F0100085F01000810
:100050005F0100085F0100085F0100085F01000800
:100060005F010008232600087D2600085F010008C4
:100070005F0100085F0100085F0100085F010008E0
:100080005F0100085F0100085F0100085F010008D0
:100090005F0100085F0100085F010008D726000823
:1000A0005F0100085F0100085F0100085F010008B0
:1000B000A32A0008C32D00085F0100085F010008A3
:1000C0005F0100085F0100085F0100085F01000890
:1000D0005F010008252200085F010008FD220008DA
:1000E0002B2700085F0100085F0100085F0100087E
:1000F0005F0100085F0100085F0100085F01000860
:100100005F0100085F0100085F0100085F0100084F
:100110008F4F0008F1500008794100085B55000836
:100120005F0100085F0100085F0100085F0100082F
:10013000DFF80CD006F0E4F800480047651E000820
:10014000800700200648804706480047FEE7FEE794
:10015000FEE7FEE7FEE7FEE7FEE7FEE7FEE7FEE777
:1001600047020008310100080CB500200190009002
:100170006C48006840F480306A49086000BF6948F4
:10018000006800F4003000900198401C0190009835
:1001900018B90198B0F5A06FF1D16248006800F479
:1001A000003010B10120009001E000200090009884
:1001B000012843D15C48006840F010005A490860AB
:1001C0000846006820F0030008600846006840F018
:1001D0000200086053484068524948600846406839
:1001E00048600846406840F48060486008464068BF
:1001F00020F47C1048600846406840F4E8104860ED
:100200000846006840F08070086000BF45480068FC
:1002100000F000700028F9D04248406820F0030048
:10022000404948600846406840F00200486000BF0E
:100230003C48406800F00C000828F9D10CBD10B50E
:10024000FFF792FF10BD10B53648006840F001007E
:1002500034490860084640683449084031494860DC
:1002600008460068324908402E4908600846006880
:1002700020F4802008600846406820F4FE004860B2
:100280004FF41F008860FFF7DAFF4FF00060294944
:10029000086010BD10B5002100200022214B5B68D2
:1002A00003F00C0121B1042906D0082928D107E068
:1002B000214B224C236027E01F4B204C236023E07E
:1002C000184B5B6803F47010164B5B6803F48032C4
:1002D000022303EB904022B9194B4343174C236090
:1002E0000DE0104B5B6803F4003323B1144B434320
:1002F000124C236003E0104B4343104C236003E097
:100300000D4B0E4C236000BF00BF064B5B68C3F370
:1003100003130C4CE15C094B1B68CB40074C23607A
:1003200010BD000000100240002002400000FFF855
:10033000FFFFF6FE08ED00E000127A00000000204A
:1003400000093D000400002031490143314A116099
:10035000704770B5002100230F22C47804B32D4CE0
:10036000246804F4E064C4F5E064210AC1F10403E4
:10037000CA40447804FA03F1847814402143090107
:10038000254C0678A155047804F01F050124AC40E3
:1003900005786D11AD0005F1E025C5F8004109E0D3
:1003A000047804F01F050124AC401C4D067876113A
:1003B00045F8264070BD1A4A0A400243154B1B1FE0
:1003C0001A60704739B1134A121D12680243114B6B
:1003D0001B1D1A6006E00F4A121D126882430D4B66
:1003E0001B1D1A607047042808D14FF0E0210969ED
:1003F00041F004014FF0E022116107E04FF0E021ED
:10040000096921F004014FF0E022116170470000FA
:100410000000FA050CED00E000E400E080E100E0FF
:1004200080FFFF1F002044490860091D0860091D66
:100430000860091D086041483F4914310860704751
:1004400000213D498279002A3AD00A4612680368A1
:100450009A430B461A600A1D126803689A430B1DE3
:100460001A60027911440A6803681A430A60324A22
:100470000832126803689A432F4B08331A601A1D1A
:10048000126803689A432C4B0C331A604279102A85
:100490000ED11A1F126803681A43274B08331A60DB
:1004A0001A1D126803681A43234B0C331A600DE0BF
:1004B0002149427911440A6803681A430A6005E039
:1004C000027911440A6803689A430A607047002160
:1004D000016001710C214171002181717047164941
:1004E000103109680143144A103211607047014607
:1004F0000020114A143212680A400AB1012000E0BB
:10050000002070470C4914310860704701460020F4
:100510000022094B1B6803EA0102074B14331B68D6
:100520000B4013B10AB1012000E0002070470249DE
:10053000143108607047000000040140FFFF0F0005
:1005400010B50446CC48844208D10121042000F0B3
:100550002DFB0021042000F029FB46E0C74884421F
:1005600008D10121082000F021FB0021082000F023
:100570001DFB3AE0C248844208D10121102000F05E
:1005800015FB0021102000F011FB2EE0BD48844235
:1005900008D10121202000F009FB0021202000F0DB
:1005A00005FB22E0B848844208D10121402000F038
:1005B000FDFA0021402000F0F9FA16E0B348844229
:1005C00008D10121802000F0F1FA0021802000F004
:1005D000EDFA0AE0AE48844207D10121801500F00F
:1005E000E5FA0021A01500F0E1FA10BD10B50121D7
:1005F000084600F0DBFA0021012000F0D7FA10BD18
:100600002DE9F041024600250026002000230024A9
:10061000002791F803C00CF00F0591F803C00CF00F
:10062000100CBCF1000F03D091F802C04CEA050594
:1006300091F800C0BCF1000F31D0146800202BE00D
:100640004FF0010C0CFA00F3B1F800C00CEA0306FD
:100650009E4220D183004FF00F0C0CFA03F7BC43ED
:1006600005FA03FC4CEA040491F803C0BCF1280F1E
:1006700006D14FF0010C0CFA00FCC2F814C00AE0DD
:1006800091F803C0BCF1480F05D14FF0010C0CFAF2
:1006900000FCC2F810C0401C0828D1D31460B1F887
:1006A00000C0BCF1FF0F34DD546800202EE000F1E3
:1006B000080C4FF0010808FA0CF3B1F800C00CEA7E
:1006C00003069E4221D183004FF00F0C0CFA03F772
:1006D000BC4305FA03FC4CEA040491F803C0BCF1E6
:1006E000280F05D100F1080C08FA0CF8C2F81480A4
:1006F00091F803C0BCF1480F07D100F1080C4FF08E
:10070000010808FA0CF8C2F81080401C0828CED363
:100710005460BDE8F0814FF6FF71018002218170C5
:100720000421C17070470246002093680B400BB152
:10073000012000E0002070470146886880B27047C1
:1007400002460020D3680B400BB1012000E00020DE
:1007500070470146C86880B27047016170474161C7
:1007600070470AB1016100E041617047C1607047A4
:100770004FF480320A4382618161826182698269B9
:10078000704702460020434B18684FF680731840AC
:1007900040EA021008433F4B186070473E49C86169
:1007A0007047F0B50A46002300240021002500F020
:1007B0000046B6F1004F02D1364EF16901E0354EE8
:1007C0007168C0F3034583B200F44016B6F5401FCC
:1007D00008D121F070612F4E766826F070662D4F9B
:1007E0007E6012E000F48016B6F5801F06D1032665
:1007F00006FA05F4A14341F0706106E0460D3601AA
:1008000003FA06F6B14341F0706122B1460D36019C
:1008100003FA06F6314300F00046B6F1004F02D16C
:100820001C4EF16101E01B4E7160F0BD30B500223D
:100830008B071C0F0F2303FA04F2164B08338C109E
:1008400053F824309343134C08348D1044F825306A
:1008500023468C1053F824308C07240F00FA04F43C
:1008600023430C4C08348D1044F8253030BD0A4920
:10087000DC3108607047000000080140000C0140B6
:10088000001001400014014000180140001C01400C
:10089000002001400000014000002042DF480068C5
:1008A00040F00100DD49086008464068DC49084026
:1008B000DA49486008460068DA490840D7490860C4
:1008C0000846006820F4802008600846406820F44C
:1008D000FE0048604FF41F0088607047CF490968E8
:1008E00021F48031CD4A11601146096821F480213C
:1008F0001160B0F5803F03D0B0F5802F0ED106E037
:10090000C649096841F48031C44A116007E0C3490F
:10091000096841F4A021C14A116000E000BF00BF96
:10092000704710B501460022002300204A11012A19
:1009300002D1BA4C236806E0022A02D1B74C236ADE
:1009400001E0B64C636A01F01F02012494401C4090
:100950000CB1012000E0002010BD38B5002000904F
:100960000024002500BF3120FFF7DBFF054600987B
:10097000401C00900098B0F5A06F01D0002DF2D07F
:100980003120FFF7CEFF08B1012400E0002420460B
:1009900038BD01460020A14A106820F0F80040EA66
:1009A000C10010607047A0490860704702460020EF
:1009B0009A4B586820F47C1042EA01031843974B85
:1009C0005860704798490866704701460020934A6E
:1009D000506820F003000843506070478F4840681B
:1009E00000F00C007047014600208C4A506820F04F
:1009F000F00008435060704701460020874A506865
:100A000020F4E06008435060704701460020834AAC
:100A1000506820F4605040EAC1005060704729B12E
:100A20007E4A527A02437D4B5A7204E07B4A527AE4
:100A300082437A4B5A7270477B49D83108607047BD
:100A400001460020754A506820F440400843506039
:100A500070470021714A20321170704A82F82010CC
:100A6000012802D004280AD104E001216B4A203277
:100A7000117005E00521694A2032117000E000BFC5
:100A800000BF70476949086070476449096A0143BB
:100A9000624A11627047654944390860704730B551
:100AA00000210022002400235C4D6D6805F00C013C
:100AB00021B1042905D0082923D105E05C4D05604A
:100AC00022E05B4D05601FE0544D6D6805F4701227
:100AD000524D6D6805F48034022505EB92421CB935
:100AE000544D554305600BE04C4D6D6805F40035E1
:100AF0001DB1504D5543056002E04D4D5543056015
:100B000002E04B4D056000BF00BF444D6D6805F02D
:100B1000F0010909484D6B5C0568DD4045603F4DBB
:100B20006D6805F4E061090A434D6B5C4568DD4082
:100B300085603A4D6D6805F46051C90A3E4D6B5CA5
:100B40004568DD40C560354D6D6805F44041890B51
:100B50003A4D6B5CC568B5FBF3F5056130BD29B155
:100B60002E4A526902432D4B5A6104E02B4A5269C6
:100B700082432A4B5A61704729B1284A926902433D
:100B8000264B9A6104E0254A92698243234B9A617D
:100B9000704729B1214AD2690243204BDA6104E04F
:100BA0001E4AD26982431D4BDA61704729B11B4A44
:100BB000D2680243194BDA6004E0184AD2688243D3
:100BC000164BDA60704729B1144A12690243134B7D
:100BD0001A6104E0114A12698243104B1A6170478E
:100BE00012494039086070470F49C86470470B4983
:100BF000C87170470948406A40F0807007494862F0
:100C0000704701460020054A92680A400AB1012057
:100C100000E00020704701498872704700100240D0
:100C20000000FFF8FFFFF6FE00004242800442424F
:100C300000127A0000093D0014000020240000206A
:100C400010B50446FE48844208D10121C014FFF7C4
:100C5000ADFF0021E014FFF7A9FFC4E0B4F1804F1D
:100C600008D101210846FFF7AEFF00210120FFF760
:100C7000AAFFB8E0F348844208D101210220FFF71F
:100C8000A2FF00210220FFF79EFFACE0EE48844265
:100C900008D101210420FFF796FF00210420FFF76F
:100CA00092FFA0E0E948844208D101210820FFF723
:100CB0008AFF00210820FFF786FF94E0E448844281
:100CC00008D101211020FFF77EFF00211020FFF73F
:100CD0007AFF88E0DF48844208D101212020FFF715
:100CE00072FF00212020FFF76EFF7CE0DA4884428B
:100CF00008D101214014FFF759FF00216014FFF7CC
:100D000055FF70E0D548844209D10121C804FFF79E
:100D10004DFF00214FF40020FFF748FF63E0D0486B
:100D2000844209D101210805FFF740FF00214FF45B
:100D30008010FFF73BFF56E0CA48844209D10121E9
:100D40004805FFF733FF00214FF40010FFF72EFF97
:100D500049E0C548844208D101214020FFF733FF14
:100D600000214020FFF72FFF3DE0C048844208D11A
:100D700001218020FFF727FF00218020FFF723FFBC
:100D800031E0BB48844208D101218015FFF71BFFE9
:100D90000021A015FFF717FF25E0B648844209D1CE
:100DA00001210804FFF702FF00214FF48030FFF714
:100DB000FDFE18E0B048844209D101214804FFF744
:100DC000F5FE00214FF40030FFF7F0FE0BE0AB48DA
:100DD000844208D101218804FFF7E8FE00214FF486
:100DE0008020FFF7E3FE10BD00220288944B98425A
:100DF0000ED0994B98420BD0B0F1804F08D0914B58
:100E0000984205D0904B984202D0904B984204D122
:100E10004FF68F731A404B881A438D4B984207D078
:100E20008C4B984204D04FF6FF431A40CB881A43AC
:100E300002808B8883850B880385814B98420BD079
:100E4000854B984208D08B4B984205D08A4B9842EC
:100E500002D08A4B984201D10B7A03860123838208
:100E6000704770B5002400220023058C4FF6FE76F3
:100E700035400584028C8388048B4FF68F752C4097
:100E8000B51E2C400D882C43751E2A400D892A431F
:100E90004D882A436A4DA8420BD06F4DA84208D016
:100EA000744DA84205D0744DA84202D0734DA8429B
:100EB00013D14FF6F7752A404D892A434FF6FB753B
:100EC0002A408D882A434FF6FF652B404FF6FF5589
:100ED0002B408D892B43CD892B4383800483CD8880
:100EE0008586028470BD70B5002400220023058C25
:100EF0004FF6EF7635400584028C8388048B48F6E4
:100F0000FF752C404FF6FF452C400D884FF6FF76BD
:100F100006EA05252C434FF6DF752A400D8906EABF
:100F200005152A434D8806EA05152A43444DA84273
:100F300002D0494DA8421DD14FF67F752A404D89F8
:100F40004FF6FF7606EA05152A434FF6BF752A408D
:100F50008D8806EA05152A434FF6FF352B404FF2E0
:100F6000FF752B408D8906EA85052B43CD8906EA5E
:100F700085052B4383800483CD880587028470BD5B
:100F800070B5002400220023058C4FF6FF66354023
:100F90000584028C8388848B4FF68F752C404FF626
:100FA000FC752C400D882C434FF6FF552A400D89C7
:100FB0004FF6FF7606EA05252A434D8806EA052501
:100FC0002A431F4DA84202D0234DA8421DD14FF203
:100FD000FF752A404D894FF6FF7606EA05252A431C
:100FE0004FF6FF352A408D8806EA05252A434EF63E
:100FF000FF752B404DF6FF752B408D8906EA0515D0
:101000002B43CD8906EA05152B4383808483CD8845
:101010008587028470BD70B5002200230024058CF2
:101020004EF6FF7635400584038C8488828B48F623
:10103000FF752A404FF6FF452A400D8820E000004A
:10104000002C01400004004000080040000C00405B
:10105000001000400014004000340140004C0140EA
:10106000005001400054014000180040001C0040A6
:101070000020004000400140004401400048014081
:101080004FF6FF7606EA05252A434DF6FF752B40FD
:101090000D8906EA05352B434D8806EA05352B43B5
:1010A000FA4DA84202D0FA4DA84208D14BF6FF757E
:1010B0002C408D894FF6FF7606EA85152C438480F7
:1010C0008283CD88A0F84050038470BD828B4FF29C
:1010D000FF331A408283828B4FF6FF7303EA0123AA
:1010E0001A4382837047F0B50C4615460022002152
:1010F0000026078C4EF6FF7C07EA0C070784828BDC
:10110000018C4FF6FF7707EA043640F6FF473A4076
:101110004FF6FF7707EA05273A434FF6FF7707EACE
:1011200003373A43D94FB8420ED0D94FB8420BD00B
:10113000B0F1804F08D0D74FB84205D0D64FB84253
:1011400002D0D64FB84206D14DF6FF77394046F46B
:101150008057394305E047F6FF57394044F480573C
:10116000394382830184F0BD828B4FF6F3731A40BA
:101170008283828B0A4382837047F0B50C46154602
:10118000002200210026078C4FF6FF6C07EA0C07AF
:101190000784828B018C4FF6FF7707EA04264FF60F
:1011A0000C773A404FF6FF7707EA03172F433A438D
:1011B000B64FB8420ED0B64FB8420BD0B0F1804F08
:1011C00008D0B44FB84205D0B34FB84202D0B34FA5
:1011D000B84206D14FF6FF57394046F4807739437D
:1011E00005E04FF2FF57394044F48077394382835A
:1011F0000184F0BD028B4FF2FF331A400283028B51
:101200004FF6FF7303EA01231A4302837047F0B5D8
:101210000C461546002200210026078C4FF6EF7C75
:1012200007EA0C070784028B018C4FF6FF7707EA69
:10123000041640F6FF473A404FF6FF7707EA0337B8
:101240003A434FF6FF7707EA05273A438F4FB842F4
:101250000ED08F4FB8420BD0B0F1804F08D08D4FD9
:10126000B84205D08C4FB84202D08C4FB84206D15C
:101270004FF6DF77394046F01007394305E04FF667
:101280005F77394044F01007394302830184F0BD91
:10129000028B4FF6F3731A400283028B0A430283D8
:1012A0007047F0B50C46154600220021068C4FF61B
:1012B000FE773E400684028B018C4FF60C7632405E
:1012C0007E1C06EA03162E433243704EB0420ED007
:1012D0006F4EB0420BD0B0F1804F08D06D4EB0428F
:1012E00005D06D4EB04202D06C4EB04206D14FF6E2
:1012F000FD76314044F00106314305E04FF6F576C6
:10130000314044F00106314302830184F0BD70B5E1
:1013100005460C465D4885420ED05D4885420BD09F
:10132000B5F1804F08D05B48854205D05A488542C8
:1013300002D05A48854200D100E000BF208850B951
:101340002389A28861882846FFF7ABFFE1882846F9
:10135000FFF79EFF25E0208804280AD12389A28870
:1013600061882846FFF753FFE1882846FFF742FFD0
:1013700017E0208808280AD12389A2886188284696
:10138000FFF7FBFEE1882846FFF7EEFE09E0238920
:10139000A28861882846FFF7A6FEE1882846FFF765
:1013A00095FE70BD2DE9F04105460C46002601274B
:1013B000608808B9022600E00026A088012801D133
:1013C000022700E001272088A0B92389A28861882C
:1013D0002846FFF766FFE1882846FFF759FF238973
:1013E0003A4631462846FFF712FFE1882846FFF7C4
:1013F00001FF13E02389A28861882846FFF707FFD1
:10140000E1882846FFF7F6FE23893A46314628460A
:10141000FFF747FFE1882846FFF73AFFBDE8F08174
:101420000A884B881A438B881A43CB881A430B8946
:101430001A434B891A438B891A43A0F844207047FA
:101440004FF6FF71818000210180C18041800172CF
:1014500070470021018041808180C18001814181EC
:101460008181C181704700210180418001218180FB
:101470000021C1800181704700210180418081806D
:10148000C18001814181818170470000002C0140B1
:10149000003401400004004000080040000C0040FF
:1014A00021B1028842F00102028004E002884FF676
:1014B000FE731A400280704731B1B0F8442042F404
:1014C0000042A0F8442005E0B0F84420C2F30E0228
:1014D000A0F8442070471AB183890B43838102E04E
:1014E00083898B43838170478182704741EA02037D
:1014F000A0F8483070471AB183890B43838102E01A
:1015000083898B438381704701894FF6F8721140BC
:10151000018170470A46002101894FF68F731940F7
:1015200011430181704730B504460D4629462046D7
:10153000FFF7F0FF208940F00700208130BD2DE942
:10154000F04104460D4616461F46602D06D13B4627
:10155000012231462046FFF75AFE05E03B460122B4
:1015600031462046FFF79DFE29462046FFF7D2FF71
:10157000208940F007002081BDE8F08130B50C469D
:1015800000210189C9B24FF6FF7505EA032515430D
:1015900025432943018130BD2DE9F04105460E4622
:1015A00017469846002443463A4631462846FFF7F8
:1015B000E5FF2C894FF6F870044044F007044FF61D
:1015C0008F70044044F070042C81BDE8F081F0B5C8
:1015D00004460D4616461F463B46324629462046DF
:1015E000FFF7CCFF208940F480402081F0BD0185C9
:1015F000828270470A46002101884FF68F73194096
:10160000114301807047F0B50C4615461E46002177
:10161000002200230189028B038C4FF6F8773940B2
:1016200021434FF6FC473A4040F201173A434FF648
:10163000DD773B404FF6FF7707EA06172F433B4322
:10164000018102830384F0BD0A460021018B4FF61D
:101650008F7319401143018370470A460021018BA3
:1016600048F6FF7319404FF6FF7303EA022319434C
:10167000018370470A460021818B4FF68F73194012
:101680001143818370470A460021818B48F6FF731E
:1016900019404FF6FF7303EA022319438183704711
:1016A00021B1028842F08002028004E002884FF6F5
:1016B0007F731A400280704721B1828842F0040291
:1016C000828004E082884FF6FB731A408280704764
:1016D00021B1828842F00802828004E082884FF6BD
:1016E000F7731A408280704721B1828842F001026C
:1016F000828004E082884FF6FE731A408280704731
:101700000A460021018B4FF6F773194011430183FC
:1017100070470A460021018B4FF2FF7319404FF6C4
:10172000FF7303EA02231943018370470A4600212D
:10173000818B4FF6F77319401143818370470A4636
:101740000021818B4FF2FF7319404FF6FF7303EABC
:1017500002231943818370470A460021018B4FF60B
:10176000FB7319401143018370470A460021018B26
:101770004FF6FF3319404FF6FF7303EA0223194374
:10178000018370470A460021818B4FF6FB73194095
:101790001143818370470A460021818B4FF6FF3346
:1017A00019404FF6FF7303EA022319438183704700
:1017B0000A460021018B4FF67F73194011430183C4
:1017C00070470A460021018BC1F30E014FF6FF73EB
:1017D00003EA02231943018370470A460021818BE3
:1017E0004FF67F7319401143818370470A460021E9
:1017F000818BC1F30E014FF6FF7303EA02231943F5
:10180000818370470A460021018C4FF6FD73194011
:101810001143018470470A460021018C4FF6F7738B
:1018200019401143018470470A460021018C4FF68C
:10183000DF7319404FF6FF7303EA02131943018463
:1018400070470A460021018C4FF67F7319404FF60E
:10185000FF7303EA02131943018470470A4600210B
:10186000018C4FF6FF5319404FF6FF7303EA022332
:101870001943018470470A460021018C4FF2FF731F
:1018800019404FF6FF7303EA02231943018470479E
:101890000A460021018C4DF6FF7319404FF6FF7385
:1018A00003EA023319430184704730B50023012451
:1018B0008C40A3B2048C9C430484048C02FA01F58E
:1018C000ADB22C43048430BD30B5002304248C40D9
:1018D000A3B2048C9C430484048C02FA01F5ADB2DB
:1018E0002C43048430BD70B5034600200024184604
:1018F000183001258D40ACB21D8CA5431D8409B163
:10190000082909D100EB6100056825F07005056024
:101910000568154305600EE00D1FC5F34E0528440C
:10192000056825F4E045056005684FF6FF7606EA90
:1019300002263543056070BD21B1028842F00202E3
:10194000028004E002884FF6FD731A40028070475F
:1019500021B1028842F00402028004E002884FF6BE
:10196000FB731A400280704721B1828842F08002E6
:10197000828004E082884FF67F731A40828070472D
:1019800002884FF6F7731A40028002880A430280E9
:10199000704782884FF68F731A40828082880A438C
:1019A0008280704702894FF6F8731A4002810289DB
:1019B0000A430281704702894FF67F731A40028101
:1019C00002890A430281704781847047818570478C
:1019D000818670470187704781877047A0F8401063
:1019E000704702884FF6FF431A40028002880A437C
:1019F000028070470146888E70470146088F704705
:101A00000146888F70470146B1F840007047014693
:101A1000888C70470146088D704702460020138A63
:101A20000B400BB1012000E000207047CA43028246
:101A3000704730B50246002000230024158A05EACD
:101A40000103958905EA010413B10CB1012000E0FE
:101A5000002030BDCA4302827047000010B5044622
:101A6000FB48844209D101218803FFF79FF8002138
:101A70004FF48040FFF79AF832E0F648844209D1EB
:101A800001214804FFF79FF800214FF40030FFF7D1
:101A90009AF825E0F048844209D101218804FFF733
:101AA00092F800214FF48020FFF78DF818E0EB4802
:101AB000844209D10121C804FFF785F800214FF4C1
:101AC0000020FFF780F80BE0E548844208D10121AF
:101AD0000805FFF778F800214FF48010FFF773F83E
:101AE00010BD2DE9F04786B005460E460024A246FB
:101AF00000BFA1460027B08900B100BF2F462C8A45
:101B00004CF6FF700440F08804432C82AC894EF6FA
:101B1000F3100440B08831890843718908430443B5
:101B2000AC81AC8A4FF6FF400440B0890443AC82DC
:101B300001A8FEF7B4FFC648874202D1DDF810A025
:101B400001E0DDF80CA0A88900F4004040B10AEBE8
:101B5000CA0000EB0A1031684900B0FBF1F807E059
:101B60000AEBCA0000EB0A1031688900B0FBF1F8FB
:101B70006420B8FBF0F004012009642101FB108906
:101B8000A88900F4004040B1322000EBC900B0FB4E
:101B9000F1F000F00700044308E0322000EB0910E8
:101BA0006421B0FBF1F000F00F0004432C8106B07B
:101BB000BDE8F0874FF41651016000218180C1809B
:101BC00001810C21418100218181704710B50246BD
:101BD0000020108A4FF2FF0318400B884C882343E3
:101BE0008C882343CC8823431843108210BD0021E6
:101BF000018041808180C180704721B1828942F497
:101C00000052828104E082894DF6FF731A4082817E
:101C10007047F0B50346002400260025002040F65A
:101C20006A17B94200D100BF1846C1F3421401F04F
:101C30001F06012707FA06F5012C01D10C3004E03C
:101C4000022C01D1103000E014301AB107682F4384
:101C5000076002E00768AF430760F0BD1AB1838AEE
:101C60000B43838202E0838A8B4383827047028A1C
:101C70004FF6F0731A400282028A0A4302827047CA
:101C800082894FF2FF731A40828182890A438281DE
:101C9000704721B1828942F00202828104E0828988
:101CA0004FF6FD731A4082817047028A4FF6DF7348
:101CB0001A400282028A0A430282704721B1028AD4
:101CC00042F48042028204E0028A4BF6FF731A401B
:101CD00002827047C1F308028280704701468888FB
:101CE000C0F308007047818941F00101818170478C
:101CF000028BD2B20283028B42EA01220283704736
:101D0000028B02F47F420283028B0A4302837047F4
:101D100021B1828A42F02002828204E0828A4FF658
:101D2000DF731A408282704721B1828A42F010022A
:101D3000828204E0828A4FF6EF731A4082827047F3
:101D400021B1828A42F00802828204E0828A4FF640
:101D5000F7731A408282704721B1828942F40042AF
:101D6000828103E08289C2F30E028281704721B131
:101D7000828A42F40062828204E0828A4FF2FF7318
:101D80001A4082827047828A4FF6FB731A40828221
:101D9000828A0A438282704721B1828A42F002021B
:101DA000828204E0828A4FF6FD731A408282704775
:101DB00002460020B1F5007F00D100BF13880B4020
:101DC0000BB1012000E00020704701F40072B2F571
:101DD000007F00D100BFCA430280704770B5024641
:101DE000002400230025002040F66A16B14200D1ED
:101DF00000BFC1F3421501F01F03012606FA03F3E9
:101E0000012D02D19689334006E0022D02D1168AB7
:101E1000334001E0968A33400C12012606FA04F49E
:101E20001688344013B10CB1012000E0002070BDD1
:101E300010B50022002340F66A14A14200D100BF71
:101E40000A1201249440A3B2DC43048010BD0000B8
:101E5000003801400044004000480040004C004071
:101E60000050004002F0F6FE02F0F4FB00F017F91B
:101E700006231DA20021084602F006FE00F030FDF8
:101E800006231CA20021084602F0FEFD02F0F6FF28
:101E900006231BA20021084602F0F6FD01F061FBBB
:101EA00006231BA20021084602F0EEFD1B4800F0AD
:101EB00086F800F0EEFD00F07EFF03F048FB0623FD
:101EC00017A20021084602F0DFFD062317A2002119
:101ED000084602F0D9FD00BF00F052FE00F082FE7D
:101EE00002F056F8F8E700004F4C45445F496E6930
:101EF000740000004C45445F496E697400000000A6
:101F0000686F6E677761695F5F496E697400000092
:101F100054494D345F496E697400000020A10700E8
:101F200054494D365F496E69740000005374617204
:101F3000745F496E69740000704700BFFEE700BF20
:101F4000FEE700BFFEE700BFFEE77047704770473F
:101F500010B500F03DF810BD30B50146B1F1807FFD
:101F600001D3012030BD21F07F40401E4FF0E02220
:101F7000506150170F22002807DA13071D0E394B46
:101F800000F00F04241F1D5503E013071C0E364BF1
:101F90001C5400BF00204FF0E02290610720106128
:101FA0000020DFE710B5314800683149B0FBF1F49B
:101FB0002046FFF7D1FF08B100BFFEE710BD01B515
:101FC0000099C80000BF011EA0F10100FBD108BDAF
:101FD0002848006820B127480068401E254908604D
:101FE000704731B5214800682149B0FBF1F528461A
:101FF000FFF7B2FF002408E000BF4FF0E0200069C7
:1020000000F480300028F8D0641C00988442F3D398
:102010004FF0E020006920F001004FF0E02108615E
:1020200038BD31B5114800684FF47A71B0FBF1F555
:102030002846FFF791FF002408E000BF4FF0E020A2
:10204000006900F480300028F8D0641C00988442B5
:10205000F3D34FF0E020006920F001004FF0E021C1
:10206000086138BD18ED00E000E400E00000002049
:1020700040420F005C00002008B54FF4A060FEF75E
:1020800063F925208DF8000001208DF801008DF8FE
:1020900002008DF803006846FEF75BF908BD00B545
:1020A00085B001210420FEF767FD01218803FEF7BA
:1020B00063FD4FF40070ADF8100018208DF8130088
:1020C00003208DF8120004A95C48FEF799FA4FF43A
:1020D0008060ADF8100004208DF8130004A9574863
:1020E000FEF78EFA4FF4E13000900020ADF80400C6
:1020F000ADF80600ADF80800ADF80C000C20ADF806
:102100000A0069464E48FFF7ECFCFFF7B5FF0122D5
:1021100040F225514A48FFF77CFD01214848FFF76E
:102120006CFD05B000BD70B504460D46294620463D
:10213000FFF7D0FD00BF80212046FFF739FE0028C1
:10214000F9D070BD2DE9F04107460D461646002432
:1021500005E0295D3846FFF7E6FF601CC4B2B442D3
:10216000F7DB00BF40213846FFF722FE0028F9D0F8
:10217000BDE8F08170B506460C46002500BF615DE4
:102180003046FFF7D0FF6D1C605D0028F7D100BF1F
:1021900040213046FFF70CFE0028F9D070BD2DE934
:1021A000F04105460C46260AE7B231462846FFF7BD
:1021B00091FD00BF80212846FFF7FAFD0028F9D0E5
:1021C00039462846FFF786FD00BF80212846FFF7E5
:1021D000EFFD0028F9D0BDE8F08100201949087012
:1021E0001949184A12788854704770B504460D464C
:1021F000E1B21348FFF76EFD00BF80211048FFF7E2
:10220000D7FD0028F9D0204670BD10B5044600BFA8
:1022100020210B48FFF7CCFD0028F9D00848FFF734
:102220005DFD10BD10B540F225510548FFF7D6FD04
:1022300018B10348FFF752FDC4B210BD00080140B9
:1022400000380140600000203C01002008B54FF438
:10225000A060FEF779F827208DF8000000208DF8A7
:1022600001008DF8020001208DF803006846FEF79A
:1022700070F808BD00B585B001210820FEF77CFC90
:1022800001218804FEF785FC4FF48060ADF8100052
:1022900018208DF8130003208DF8120004A95B4864
:1022A000FEF7AEF94FF40060ADF8100004208DF891
:1022B000130004A95548FEF7A3F94FF41640009007
:1022C0000020ADF80400ADF80600ADF80800ADF848
:1022D0000C000C20ADF80A0069464D48FFF701FCE0
:1022E000FFF7B4FF012240F225514948FFF791FC66
:1022F00001214748FFF781FC05B000BD2DE9F04101
:10230000002600270A2540F225514148FFF766FDC7
:10231000002878D03E48FFF7E1FCC4B23D48007881
:1023200008286BD2DFE800F004101C22282E343A73
:10233000AA2C05D13848047001203649087002E003
:102340000020344908705DE0552C05D132484470B6
:1023500002203049087002E000202E49087051E048
:102360002D48847003202B4908704BE02A48C47024
:1023700004202849087045E02748047105202549B4
:1023800008703FE02448447106202249087039E073
:102390002148847107201F49087033E01E480078E7
:1023A0001D49497808441C49897808441A49C97864
:1023B00008441949097908441749497908441649D4
:1023C000897908441449C8710846C079A0420FD1E0
:1023D0000846807840B286B20846C07840B287B2DC
:1023E00008464079897900EB012085B20B480580C9
:1023F00000200849087005E005E0FFE700200549D6
:10240000087000BF00BFBDE8F0810000000C014073
:10241000004800407800002079000020580000208B
:1024200008B54FF4A060FDF78FFF02208DF8010082
:1024300003208DF8020001208DF8030009208DF89B
:1024400000006846FDF785FF03208DF802000A2092
:102450008DF800006846FDF77CFF03208DF8020030
:1024600017208DF800006846FDF773FF03208DF8F4
:10247000020028208DF800006846FDF76AFF08BDBD
:102480000EB5FFF7CDFF01210520FEF775FB0121F9
:102490002120FEF771FB01214120FEF76DFB012198
:1024A0008120FEF769FB4FF48050ADF8080048200A
:1024B0008DF80B0003208DF80A0002A9FD48FEF7F5
:1024C0009FF841F21800ADF8080002A9FA48FEF79B
:1024D00097F88020ADF8080002A9F848FEF790F8B8
:1024E0004FF43040ADF8080002A9F548FEF788F82F
:1024F0000820009000208DF804000C208DF80500C5
:1025000001208DF806006846FDF79AFF1020009024
:1025100000208DF804000C208DF8050001208DF8B6
:1025200006006846FDF78CFF8020009000208DF8A3
:1025300004000C208DF8050001208DF80600684687
:10254000FDF77EFF4FF48050009000208DF80400CE
:102550000C208DF8050001208DF806006846FDF777
:102560006FFF4FF40050009000208DF804000C2005
:102570008DF8050001208DF806006846FDF760FF24
:102580004FF40040009000208DF804000C208DF8DE
:10259000050001208DF806006846FDF751FF0C216B
:1025A0000020FEF743F903210846FEF73FF9042116
:1025B0000320FEF73BF90C210320FEF737F9072132
:1025C0000420FEF733F90C210520FEF72FF90D2129
:1025D0000520FEF72BF90F210520FEF727F908202B
:1025E000FDF7A5FF1020FDF7A2FF8020FDF79FFF5C
:1025F0004FF48050FDF79BFF4FF40050FDF797FF1D
:102600004FF40040FDF793FF092000F05DF90A2028
:1026100000F05AF9172000F057F9282000F054F97B
:102620000EBD10B50820FDF771FF012822D1A24888
:102630000830006800F00800E0B942F21070FFF7BF
:10264000BEFC9D480830006800F0080090B900BF4B
:1026500099480830006800F008000028F8D0974832
:102660000C30006880F4807094490C3108600120BF
:10267000944948738020FDF75AFF10BD10B5102013
:10268000FDF744FF012822D18B480830006800F094
:102690001000E0B942F21070FFF791FC8648083054
:1026A000006800F0100090B900BF8348083000684F
:1026B00000F010000028F8D080480C30006880F44A
:1026C00080707E490C31086001207E49487380206B
:1026D000FDF72DFF10BD10B58020FDF717FF012875
:1026E0001FD176480830006800F08000C8B942F277
:1026F0001070FFF764FC71480830006800F080003B
:1027000078B900BF6D480830006800F080000028EC
:10271000F8D06A480C30006880F4807067490C314A
:1027200008608020FDF703FF10BD10B54FF4805006
:10273000FDF7ECFE012864D15E480830006800F423
:1027400080500028F7D142F21070FFF738FC59484A
:102750000830006800F4805078B900BF5548083050
:10276000006800F480500028F8D054480C3000680D
:1027700080F4807051490C3108604F48083000687F
:1027800000F48050F0BB42F21070FFF718FC4A488A
:102790000830006800F4805078B900BF464808301F
:1027A000006800F480500028F8D044480C300068DD
:1027B00080F4007041490C310860414808300068DD
:1027C00000F48050C8B942F21070FFF7F8FB3C48A3
:1027D0000830006800F4805078B900BF38480830ED
:1027E000006800F480500028F8D034480C300068AD
:1027F00080F4806031490C3108604FF48050FDF75F
:1028000096FE55E0FFE74FF40050FDF77FFE0128EC
:1028100024D12B480830006800F40050C8B942F2B7
:102820001070FFF7CCFB26480830006800F4005019
:1028300078B900BF22480830006800F40050002832
:10284000F8D01E480C30006880F480701B490C31B1
:1028500008604FF40050FDF76AFE29E04FF4004095
:10286000FDF754FE012823D115480830006800F414
:102870000040C8B942F21070FFF7A1FB10480830C1
:10288000006800F4004078B900BF0D4808300068C7
:1028900000F400400028F8D008480C30006880F4AC
:1028A000807006490C3108604FF40040FDF73FFE90
:1028B00010BD000000080140001401400018014054
:1028C000001C01403C02002000F01F020121914049
:1028D0004209920002F1E022C2F8001170470000A4
:1028E00008B501211020FEF747F901214020FEF72D
:1028F00043F94FF4E060ADF8000010208DF80300BC
:1029000003208DF8020069461048FDF779FE4FF468
:102910004060ADF8000069460D48FDF771FE0020EB
:102920000C49086001200C49C1F8A80101020748C0
:10293000FDF713FF4FF400710448FDF70EFF4FF44D
:1029400080610248FDF709FF08BD00000018014042
:1029500000100140AC0122420000224208B54FF4B1
:10296000E060FDF7F1FC1C208DF8000002208DF8DE
:1029700001008DF8020001208DF803006846FDF784
:10298000E8FC08BD08B501210420FEF7F5F8012197
:10299000A948FDF706FF04208DF803006946A74803
:1029A000FDF72EFE0420ADF800006946A348FDF7B0
:1029B00027FE0820ADF800006946A048FDF720FE7C
:1029C00001210820FEF7D8F84FF44040ADF8000090
:1029D00010208DF8030003208DF802006946984806
:1029E000FDF70EFE4FF480419648FDF7B8FE4FF418
:1029F00000419448FDF7B3FE08BD00B587B0012142
:102A00000846FEF7C6F84FF6FF70ADF814004720F1
:102A1000ADF810000020ADF81600ADF812008DF8EA
:102A2000180004A94FF08040FEF7DEF90820ADF849
:102A300004000020ADF806000120ADF808000020D9
:102A4000ADF80A00ADF80C0001A94FF08040FEF788
:102A50005EFC0C20ADF8040001A94FF08040FEF7A9
:102A600056FC09218807FEF7E1FF012209218807AA
:102A7000FEF731FD11218807FEF7D8FF0122112151
:102A80008807FEF728FD01218807FEF709FD07B03A
:102A900000BD10B5FFF776FFFFF760FFFFF7ADFF52
:102AA00010BD10B501218807FEF7C3FF68B1664865
:102AB0008088401C6449888064488088401C634941
:102AC000888001218807FEF7C5FF0821C806FEF7A8
:102AD000B0FF38B35C48407880B900214FF08040A7
:102AE000FEF772FF0020584988804880022148077D
:102AF000FEF7B4FE0120544948700FE04FF08040CB
:102B0000FEF77EFF5049488000214FF08040FEF7DD
:102B1000A5FE00204C494870012008700821C80615
:102B2000FEF798FF10218806FEF783FF38B3474869
:102B3000407880B900214FF08040FEF745FF00202B
:102B400042498880488002214807FEF7A1FE012003
:102B50003E4948700FE04FF08040FEF754FF3B497C
:102B6000488000214FF08040FEF792FE0020374958
:102B700048700120087010218806FEF76BFF10BD19
:102B800010B53148007801282BD12F484088401CCF
:102B90002D49898800EB01402B49886008468068F0
:102BA0002B490968B0FBF1F201FB12004FF4AA7146
:102BB000484340084FF47A71B0FBF1F02249888114
:102BC0000846808940F2DC51884202DD08461E49F1
:102BD00088811D4881891FA003F0D0FB00201A497D
:102BE000087010BD10B519480078012822D1174887
:102BF0004088401C1549898800EB014013498860D2
:102C00000846806812490968B0FBF1F201FB120026
:102C10004FF4AA71484340084FF47A71B0FBF1F0C9
:102C20000A4988810846818910A003F0A7FB00208B
:102C30000649087010BD000000011800000801409E
:102C400000180140000C01406002002070020020CA
:102C5000840000200D0AB2E2C1BFBEE0C0EB33A386
:102C6000BA2564206D6D0D0A000000000D0AB2E265
:102C7000C1BFBEE0C0EB34A3BA2564206D6D0D0A60
:102C80000000000008B501210420FDF775FF402079
:102C9000ADF8000004208DF8030003208DF8020039
:102CA00069466748FDF7ACFC8020ADF80000694636
:102CB0006348FDF7A5FC01210820FDF75DFF012019
:102CC000ADF8000069465F48FDF79AFC0220ADF8B8
:102CD000000069465B48FDF793FC08BD08B54FF45A
:102CE000A060FDF731FB1D208DF8000001208DF85C
:102CF000010002208DF8020001208DF803006846D3
:102D0000FDF727FB08BD00B587B001210220FDF7C4
:102D100040FF4FF6FF70ADF814004720ADF81000EB
:102D20000020ADF81600ADF8120004A94648FEF7E1
:102D30005BF80020ADF80400ADF806000120ADF806
:102D400008000020ADF80A00ADF80C0001A93E48CB
:102D5000FEF7DDFA0420ADF8040001A93A48FEF7B9
:102D6000D6FA0820ADF8040001A93748FEF7CFFADB
:102D70000C20ADF8040001A93348FEF7C8FAFFF7AC
:102D8000ADFF012202213048FEF7A5FB01220421FC
:102D90002D48FEF7A0FB012208212B48FEF79BFBE4
:102DA000012210212848FEF796FB01212648FEF754
:102DB00077FB07B000BD10B5FFF764FFFFF7A3FF77
:102DC00010BD10B502212048FEF733FE012808D1BE
:102DD00002211D48FEF73EFE1C480068401C1B49AE
:102DE000086004211848FEF724FE012808D10421B8
:102DF0001548FEF72FFE16480068401C144908606D
:102E000008211148FEF715FE012808D108210E48B7
:102E1000FEF720FE0F480068401C0E490860102194
:102E20000948FEF706FE012808D110210648FEF7E2
:102E300011FE09480068401C0749086010BD0000E9
:102E400000080140000C0140000400408800002000
:102E50008C00002090000020940000200020FE49FB
:102E600009688862FC49096808630021FA4A126807
:102E7000116251624FF08040F74A12689160D06051
:102E80004FF06631F548F44A1268116150614942C9
:102E9000F348F14A12689161D0614FF41670EE491F
:102EA000096808600020EC4909684863EA49096834
:102EB0008863E9490968C862E74909684860E949DF
:102EC00009688862E749096808630021E54A1268D1
:102ED000116251624FF08041E24A12689060D16005
:102EE0004FF06630DD49DF4A12681061516141429E
:102EF000DB48DC4A12689161D0614FF41670D94901
:102F0000096808600020D74909684863D5490968FD
:102F10008863D4490968C862D24909684860D249BF
:102F200009688862D049096808630021CE4A12689E
:102F3000116251624FF08041CB4A12689060D160BB
:102F40004FF06631C548C84A126811615061484265
:102F5000C349C54A12689061D1614FF41670C249E5
:102F6000096808600020C04909684863BE490968CB
:102F70008863BD490968C862BB4909684860BB49A4
:102F800009688862B94909680863B84A126810621A
:102F9000506200214FF08040B44A12689160D060C6
:102FA0004FF06631AD48B14A126811615061494233
:102FB000AB48AE4A12689161D0614FF41670AB49CC
:102FC000096808600020A94909684863A749096899
:102FD0008863A6490968C862A449096848607047BF
:102FE00070B505460C46012C03D12946A048FEF7D2
:102FF000EFFC022C03D129469D48FEF7EBFC032C85
:1030000003D129469A48FEF7E7FC042C03D1294650
:103010009748FEF7E3FC70BD2DE9F04F89B00446F8
:1030200089462168A1EB090002F0DEFF206261629F
:10303000606802F0D9FF0546276A636A3A4602F0E3
:1030400046FE824602F0F5FF6060606840F214516F
:10305000884201DB084660606068002801DC0020CF
:103060006060A06A02F0C0FF0746256A636A2A46CC
:1030700002F0D1FE8246A569E3692A4602F0CEFE3F
:10308000CDE90401606802F0AFFF07462569636976
:103090002A4602F0C3FE82468B46256A636AA76809
:1030A000E1682A46384602F0B9FE52465B46CDE951
:1030B000000102F00CFECDE90201DDE9042302F07B
:1030C00006FECDE9060102F0B4FFA063226A616A40
:1030D000104602F0AEFFA062A06BC82801DDC82038
:1030E000A063A06BC82801DAC820A063A16B88B2D6
:1030F0000121FFF775FFA16B88B20421FFF770FF74
:1031000009B0BDE8F08F2DE9F04F89B0044689463B
:103110002168A1EB090002F067FF2062616260682C
:1031200002F062FF0546276A636A3A4602F0CFFD65
:10313000824602F07EFF6060606840F2145188426F
:1031400001DB084660606068002801DC00206060E8
:10315000A06A02F049FF0746256A636A2A4602F020
:103160005AFE8246A569E3692A4602F057FECDE978
:103170000401606802F038FF0746256963692A4642
:1031800002F04CFE82468B46256A636AA768E168B6
:103190002A46384602F042FE52465B46CDE900011F
:1031A00002F095FDCDE90201DDE9042302F08FFD77
:1031B000CDE9060102F03DFFA063226A616A104674
:1031C00002F037FFA062A06BC82801DDC820A06311
:1031D000A06BC82801DAC820A063A16B88B20221C5
:1031E000FFF7FEFEA16B88B20321FFF7F9FE09B0DD
:1031F000BDE8F08F2DE9F04F89B00446894621687B
:10320000A1EB090002F0F0FE20626162606802F04A
:10321000EBFE0546276A636A3A4602F058FD82468D
:1032200002F007FF6060606840F21451884201DBE1
:10323000084660606068002801DC00206060A06AC9
:1032400002F0D2FE0746256A636A2A4602F0E3FDD1
:103250008246A569E3690DE09C0000206666E63FB2
:103260009999B93FA0000020A4000020A8000020E8
:10327000000800402A4602F0D1FDCDE90401606853
:1032800002F0B2FE0746256963692A4602F0C6FDD0
:1032900082468B46256A636AA768E1682A463846F3
:1032A00002F0BCFD52465B46CDE9000102F00FFD85
:1032B000CDE90201DDE9042302F009FDCDE90601B3
:1032C00002F0B7FEA063226A616A104602F0B1FE06
:1032D000A062A06BB0F52F7F02DD4FF42F70A063CA
:1032E000A06B002801DA0020A063A16B88B2032143
:1032F000FFF776FE09B0BDE8F08F2DE9F04F89B0F9
:10330000044689462168A1EB090002F06DFE2062A7
:103310006162606802F068FE0546276A636A3A46A1
:1033200002F0D5FC824602F084FE6060606840F2E4
:103330001451884201DB084660606068002801DCA7
:1033400000206060A06A02F04FFE0746256A636AAB
:103350002A4602F060FD8246A569E3692A4602F02A
:103360005DFDCDE90401606802F03EFE0746256977
:1033700063692A4602F052FD82468B46256A636ADB
:10338000A768E1682A46384602F048FD52465B4687
:10339000CDE9000102F09BFCCDE90201DDE9042347
:1033A00002F095FCCDE9060102F043FEA063226A1B
:1033B000616A104602F03DFEA062A06BB0F52F7F5F
:1033C00002DD4FF42F70A063A06B002801DA00200B
:1033D000A063A16B88B20421FFF702FE09B0BDE82B
:1033E000F08F08B501221146FE48FEF774F81E2042
:1033F0008DF8000000208DF8010003208DF80200F8
:1034000001208DF803006846FCF7A3FF08BD00B556
:1034100089B001210420FDF7BCFB01210920FDF743
:10342000ABFB4FF47070ADF8200018208DF823002E
:1034300003208DF8220008A9EB48FDF7E1F80121EF
:103440000802FDF799FB01212020FDF795FB4FF4C1
:10345000F040ADF8200010208DF8230003208DF8F7
:10346000220008A9E148FDF7CBF84FF47060ADF8F1
:10347000200008A9DE48FDF7C3F840F2E730ADF8B8
:1034800018000320ADF814000020ADF81A00ADF8C4
:10349000160005A9D348FDF7A7FC6020ADF804008D
:1034A0000120ADF806000020ADF80C0001A9CD48C0
:1034B000FDF7D7FC0821CB48FEF722F901A9C9483E
:1034C000FDF711FD0821C748FEF723F901A9C548FA
:1034D000FDF756FD0821C348FEF728F901A9C148A8
:1034E000FDF799FD0821BF48FEF729F90121BD48E4
:1034F000FEF7D6F80121BB48FEF72AFA0121B948A8
:10350000FEF7A8FA01221146B648FDF7E4FF0121B3
:10351000B448FDF7C5FF4FF4FA71B248FEF758FA08
:103520004FF4FA71AF48FEF755FA4FF4FA71AD480F
:10353000FEF752FA4FF4FA71AA48FEF74FFA00214B
:10354000A848FEF745FA0021A648FEF743FA0021F5
:10355000A448FEF741FA0021A248FEF73FFA09B05D
:1035600000BD10B5FFF753FF10BD10B501210020BD
:10357000FFF736FD02210020FFF732FD0321002076
:10358000FFF72EFD04210020FFF72AFD10BD0346A2
:10359000934201DB104670478B4201DC0846FAE794
:1035A0001846F8E72DE9F04704469248006802F013
:1035B0005FFD20626162256A616A00228E4B2846A7
:1035C00002F082FD1DD200208C4908600120091DF7
:1035D0000860276A636A3A460020894902F01EFCA7
:1035E0008146276A636A3A4602F018FC054602F0F3
:1035F00020FDA063A06B82220021FFF7C8FFA0631B
:1036000026E0256A616A00227E4B284602F044FDCE
:103610001CD20120794908600020091D0860276A32
:10362000636A3A46764902F0F9FB0546276A636AFF
:103630003A4602F0F3FB814602F0FBFCA063A06B6C
:1036400082220021FFF7A3FFA06301E00020A06316
:10365000A06B81B26348FEF7C1F9BDE8F0872DE9A0
:10366000F04704466348006802F002FD2062616290
:10367000256A616A0022604B284602F025FD1CD2B3
:103680000120614908600020091D0860276A636AFB
:103690003A465B4902F0C2FB8146276A636A3A46B2
:1036A00002F0BCFB054602F0C4FCA063A06B5022F4
:1036B0000021FFF76CFFA06327E0256A616A002202
:1036C000504B284602F0E8FC1DD200204E4908600D
:1036D0000120091D0860276A636A3A4600204849AC
:1036E00002F09CFB0546276A636A3A4602F096FBA5
:1036F000814602F09EFCA063A06B50220021FFF7E0
:1037000046FFA06301E00020A063A06B81B23548B2
:10371000FEF760F9BDE8F08710B501203A4908319D
:10372000086000203949C1F8B801344908390860F7
:1037300001203749C1F8A4013648008881B22948E0
:10374000FEF746F93348008881B22648FEF744F96F
:103750003148FFF784FF3148FFF724FF10BD10B553
:10376000002029490831086001202849C1F8B80122
:1037700022490839086000202549C1F8A4012548DC
:10378000008881B21748FEF723F92248008881B2E9
:103790001448FEF721F92048FFF761FF1F48FFF7A3
:1037A00001FF10BD2DE9F04704461248006802F001
:1037B0005FFC20626162256A616A00220E4B284626
:1037C00002F082FC3DD200200C490839086001203B
:1037D000091D0860276A636A3A460020084902F01A
:1037E0001DFB1DE000080040000C014000200140CE
:1037F00000140140500000200000F03FA881224248
:10380000000059400000F0BFAC01244200002442F7
:103810000080224298000020C002002040030020C7
:103820008146276A636A3A4602F0F8FA054602F0D2
:1038300000FCA063A06B50220021FFF7A8FEA0634C
:1038400026E0256A616A0022F74B284602F024FC34
:103850001CD20120F54908600020091D0860276A74
:10386000636A3A46F24902F0D9FA0546276A636A62
:103870003A4602F0D3FA814602F0DBFBA063A06B6C
:1038800050220021FFF783FEA06301E00020A06327
:10389000A06B81B2E748FEF79FF8BDE8F0872DE9FD
:1038A000F0470446E448006802F0E2FB20626162EF
:1038B000256A616A0022E14B284602F005FC1DD210
:1038C0000020DF4908600120091D0860276A636A3B
:1038D0003A460020D64902F0A1FA8146276A636A77
:1038E0003A4602F09BFA054602F0A3FBA063A06BE8
:1038F00082220021FFF74BFEA06326E0256A616A61
:103900000022C94B284602F0C7FB1CD20120CC493B
:1039100008600020091D0860276A636A3A46C449A6
:1039200002F07CFA0546276A636A3A4602F076FAA4
:10393000814602F07EFBA063A06B82220021FFF78C
:1039400026FEA06301E00020A063A06B81B2B9480D
:10395000FEF73EF8BDE8F08710B50120B8490839F8
:1039600008600020B749C1F8B0010120AF49083113
:1039700008600020B449C1F8AC01B448008881B2A5
:10398000AC48FEF727F8B148008881B2A948FEF795
:1039900025F8AF48FFF783FFAE48FFF703FF10BDE0
:1039A00010B50020A649083908600120A549C1F8D2
:1039B000B00100209D49083108600120A249C1F8EA
:1039C000AC01A248008881B29A48FEF703F89F48EC
:1039D000008881B29748FEF701F89D48FFF75FFF26
:1039E0009C48FFF7DFFE10BD10B50120944908394F
:1039F000086000209349C1F8B801974801689448CD
:103A0000FFF70AFB9548FFF72AFE9248FFF7CAFE28
:103A100010BD10B500208A49083908600120894985
:103A2000C1F8B8018C4801688948FFF7F5FA8B485E
:103A3000FFF715FE8748FFF7B5FE10BD10B5012052
:103A40007F49091F086000207E49C1F8B4018448FD
:103A500001688248FFF757FB7D48FFF720FF814848
:103A6000FFF7A0FD10BD10B500207549091F0860C3
:103A700001207449C1F8B401794801687748FFF71B
:103A800042FB7348FFF70BFF7648FFF78BFD10BD35
:103A900010B500206A49086001206A49C1F8B801E0
:103AA0000020624908600120091D08606449083946
:103AB00008600020091D086001205C490831086089
:103AC00000206149C1F8AC01C8215A48FDF780FFC8
:103AD000C8215848FDF77EFFC8215648FDF77CFFF6
:103AE000C8215448FDF77AFF10BD10B50120544994
:103AF000086000205349C1F8B80101204B49086013
:103B00000020091D08604E49083908600120091D80
:103B10000860002045490831086001204A49C1F881
:103B2000AC01C8214348FDF753FFC8214148FDF7C8
:103B300051FFC8213F48FDF74FFFC8213D48FDF721
:103B40004DFF10BD10B500203D49086001203D49E2
:103B5000C1F8B8010020354908600120091D08603E
:103B60003749083908600020091D086001202F49E5
:103B70000831086000203449C1F8AC013A48018896
:103B80002C48FDF725FF384801882A48FDF722FF19
:103B9000354801882748FDF71FFF3348018825482D
:103BA000FDF71CFF10BD10B500202549086001205D
:103BB0002449C1F8B80100201C4908600120091DF2
:103BC00008601F49083908600020091D08600120AD
:103BD00016490831086000201B49C1F8AC01224891
:103BE0000088224A1288104481B21248FDF7F0FE84
:103BF0001D4800881D4A1288104481B20D48FDF707
:103C0000E9FE19480088194A1288801A81B20948C9
:103C1000FDF7E2FE14480088144A1288801A81B227
:103C20000448FDF7DBFE10BD0000F0BFA08122427A
:103C30000000594000080040500000200000F03F04
:103C4000B401244200002442008022429800002057
:103C5000800200200003002088000020C002002015
:103C60008C00002040030020B6000020B800002097
:103C700010B50020A14908600120A149C1F8B80190
:103C80000020A04908600120091D08609B490839EF
:103C900008600020091D086001209A490831086069
:103CA00000209949C1F8AC0198480088984A1288C8
:103CB000104481B29748FDF78BFE94480088944ADF
:103CC0001288104481B29348FDF784FE8F48008823
:103CD0008F4A1288801A81B28E48FDF77DFE8B488C
:103CE00000888B4A1288801A81B28A48FDF776FED6
:103CF00010BD10B500208149086001208049C1F83D
:103D0000B80100207F4908600120091D08607B4937
:103D1000083908600020091D086001207949083130
:103D2000086000207849C1F8AC01784800887A4AD8
:103D30001288104481B27748FDF74AFE7348008824
:103D4000754A1288104481B27248FDF743FE6F48ED
:103D50000088714A1288801A81B26E48FDF73CFED5
:103D60006A4800886C4A1288801A81B26948FDF757
:103D700035FE10BD10B50020604908600120604983
:103D8000C1F8B80100205F4908600120091D0860E2
:103D90005A49083908600020091D08600120594966
:103DA0000831086000205849C1F8AC015748008824
:103DB0005A4A1288801A81B25648FDF709FE5348C4
:103DC0000088564A1288801A81B25248FDF702FED6
:103DD0004E480088514A1288104481B24D48FDF780
:103DE000FBFD4A4800884D4A1288104481B2494878
:103DF000FDF7F4FD10BD10B500204049086001201A
:103E00003F49C1F8B80100203E4908600120091D62
:103E100008603A49083908600020091D086001203F
:103E200038490831086000203749C1F8AC013748EB
:103E30000088374A1288801A81B23648FDF7C8FDDB
:103E400032480088324A1288801A81B23148FDF720
:103E5000C1FD2E4800882E4A1288104481B22D4898
:103E6000FDF7BAFD29480088294A1288104481B21A
:103E70002848FDF7B3FD10BD10B500201F490860AC
:103E800001201F49C1F8B80100201E490860012027
:103E9000091D08601949083908600020091D0860DB
:103EA000012018490831086000201749C1F8AC0109
:103EB00016480088184A1288801A81B21548FDF702
:103EC00087FD12480088144A1288801A81B211486E
:103ED000FDF780FD0D4800880F4A1288104481B21A
:103EE0000C48FDF779FD094800880B4A12881044F8
:103EF00081B20848FDF772FD10BD0000B4012442F4
:103F000000002442A081224200802242B60000200C
:103F1000BA00002000080040BC000020B8000020CB
:103F200008B54FF4E060FCF70FFA36208DF800007A
:103F300002208DF801008DF802006846FCF709FAAE
:103F400008BD0EB501211020FCF723FE40F2E7303A
:103F5000ADF804004720ADF800000020ADF80200E5
:103F60006946AC48FCF740FF0121AA48FDF75EFD19
:103F700001224121A748FDF7AEFA0121A548FDF72E
:103F80008FFA0EBD10B5FFF7CBFFFFF7DAFF10BDBC
:103F900008B5A148007830B90623A0A2012100206D
:103FA00000F072FD05E006239DA20121002000F033
:103FB0006BFD9C48007830B9062398A2012110209F
:103FC00000F062FD05E0062395A20121102000F01B
:103FD0005BFD9548007830B9062390A2012120208E
:103FE00000F052FD05E006238DA20121202000F003
:103FF0004BFD8E48007830B9062388A2012130207D
:1040000000F042FD05E0062385A20121302000F0EA
:104010003BFD8748007830B9062380A20121482063
:1040200000F032FD05E006237DA20121482000F0CA
:104030002BFD8048007830B9062378A20121582052
:1040400000F022FD05E0062375A20121582000F0B2
:104050001BFD7948007830B9062370A20121682041
:1040600000F012FD05E006236DA20121682000F09A
:104070000BFD7248007830B9062368A20121782030
:1040800000F002FD05E0062365A20121782000F082
:10409000FBFC6B48007830B9062360A20121402068
:1040A00000F0F2FC05E006235DA20121402000F0B3
:1040B000EBFC0620032300906248028802210020C6
:1040C00000F068FC062360A20221202000F0DCFC46
:1040D0000620032300905D4802881946002000F066
:1040E00059FC06235AA20321202000F0CDFC062013
:1040F00000905848008800EB4001C1EBC0105649C1
:10410000098801EB800204231946002000F042FCDC
:10411000062352A20421202000F0B6FC062004232E
:1041200000904F4802780521002000F033FC062360
:104130004CA20521202000F0A7FC062005230090BA
:104140004A4806210268002000F024FC062348A209
:104150001946402000F098FC0620072300904548AF
:1041600019460268002000F015FC06233BA2072137
:10417000502000F089FC08BD10B501212548FDF74D
:1041800058FC002845D001212248FDF763FC3A483D
:104190000088401C3849088008460088B0F5FA7F3E
:1041A0000ADB002008803548006880F4007033493D
:1041B00008600020324908603248006818B90020C1
:1041C0001A49087002E00120184908702D48001DA6
:1041D000006818B900201449087002E00120124953
:1041E000087028480830006818B900200D49087088
:1041F00002E001200B49087022480C30006818B911
:1042000000200549087002E0012003490870FFF70B
:10421000BFFE10BD00100040C200002030000000B2
:1042200031000000C1000020C0000020BF000020BD
:10423000C3000020C4000020C5000020C6000020EC
:10424000F0000020E80000206D696E00E60000200C
:1042500073000000E4000020E20000206D73000005
:10426000F1000020436F756E7400000030010020E3
:104270006D6D000034010020C80000200C180140C2
:10428000A80123420801244210B54FF48051FA4896
:10429000FCF763FA4FF40051F748FCF75EFA4FF46D
:1042A0000051F548FCF75BFA4FF48051F248FCF7F7
:1042B00056FA10BD10B54FF48041EF48FCF74DFAA7
:1042C0004FF40041EC48FCF748FA4FF40041EA484B
:1042D000FCF745FA4FF48041E748FCF740FA10BD7F
:1042E00010B54FF48051E448FCF737FA4FF4005111
:1042F000E148FCF734FA4FF40051DF48FCF72DFA9F
:1043000010BD10B54FF48041DB48FCF726FA4FF49E
:104310000041D948FCF723FA4FF40041D648FCF796
:104320001CFA10BD10B54FF48051D348FCF715FAB4
:104330004FF48051D048FCF712FA10BD10B54FF47D
:104340008041CD48FCF709FA4FF48041CA48FCF798
:1043500006FA10BD2DE9F04105462C464FF4805178
:10436000C548FCF7FCF900261CE0274607F080074B
:10437000802F04D1B901C048FCF7EFF904E04FF4F5
:104380000051BD48FCF7EBF96006040E4FF4805174
:10439000B948FCF7E2F94FF48051B748FCF7DFF970
:1043A000701CC6B2082EE0DBBDE8F0812DE9F041BB
:1043B00005462C464FF48041AF48FCF7D0F9002663
:1043C0001CE0274607F08007802F04D13902AA4855
:1043D000FCF7C3F904E04FF40041A748FCF7BFF92C
:1043E0006006040E4FF48041A348FCF7B6F94FF481
:1043F0008041A148FCF7B3F9701CC6B2082EE0DB7F
:10440000BDE8F08110B50446FFF73EFF7820FFF7C6
:10441000A1FFFFF787FF0020FFF79CFFFFF782FF58
:104420002046FFF797FFFFF77DFFFFF759FF10BD0D
:1044300010B50446FFF73EFF7820FFF7B7FFFFF700
:104440007DFF0020FFF7B2FFFFF778FF2046FFF760
:10445000ADFFFFF773FFFFF754FF10BD10B5044623
:10446000FFF712FF7820FFF775FFFFF75BFF402093
:10447000FFF770FFFFF756FF2046FFF76BFFFFF7D0
:1044800051FFFFF72DFF10BD10B50446FFF712FFD7
:104490007820FFF78BFFFFF751FF4020FFF786FFE3
:1044A000FFF74CFF2046FFF781FFFFF747FFFFF7BD
:1044B00028FF10BD70B504460D461DB1E0B2FFF7F0
:1044C000CDFF02E0E0B2FFF79DFF70BD70B504467E
:1044D0000D461DB1E0B2FFF7D7FF02E0E0B2FFF7F3
:1044E000A7FF70BD70B50646002418E004F1B000C7
:1044F0000021FFF7DFFF00210846FFF7DBFF002167
:104500001020FFF7D7FF002505E001213046FFF717
:10451000D1FF681CC5B2802DF7DB601CC4B2082C2B
:10452000E4DB70BD70B50646002418E004F1B0006D
:104530000021FFF7CBFF00210846FFF7C7FF00214E
:104540001020FFF7C3FF002505E001213046FFF7EB
:10455000BDFF681CC5B2802DF7DB601CC4B2082CFF
:10456000E4DB70BD06E041F6650100E0491E00296C
:10457000FCD1401E0028F6D17047014605E000201E
:1045800001E0421CD0B27B28FBDB0A1EA1F1010135
:10459000F5D1704770B504460D4605F1B000002115
:1045A000FFF788FF102141EA14100021FFF782FF76
:1045B00004F00F000021FFF77DFF70BD70B50446C9
:1045C0000D4605F1B0000021FFF780FF102141EA00
:1045D00014100021FFF77AFF04F00F000021FFF70D
:1045E00075FF70BD10B500218D20FFF763FF00211E
:1045F0001420FFF75FFF0021AF20FFF75BFF10BD26
:1046000010B500218D20FFF761FF00211420FFF776
:104610005DFF0021AF20FFF759FF10BD10B500214D
:104620008D20FFF747FF00211020FFF743FF0021F7
:10463000AE20FFF73FFF10BD10B500218D20FFF722
:1046400045FF00211020FFF741FF0021AE20FFF7BA
:104650003DFF10BD70B500241AE004F1B000002148
:10466000FFF728FF00210846FFF724FF0021102054
:10467000FFF720FF002507E0000C0140012100208A
:10468000FFF718FF681CC5B2802DF7DB601CC4B2B1
:10469000082CE2DB70BD70B5002418E004F1B00016
:1046A0000021FFF713FF00210846FFF70FFF00214D
:1046B0001020FFF70BFF002505E001210020FFF788
:1046C00005FF681CC5B2802DF7DB601CC4B2082C46
:1046D000E4DB70BD70B5022418E004F1B0000021E5
:1046E000FFF7E8FE00210846FFF7E4FE0021102056
:1046F000FFF7E0FE002505E001210020FFF7DAFECC
:10470000681CC5B2802DF7DB601CC4B2082CE4DB4A
:1047100070BD70B5022418E004F1B0000021FFF76D
:10472000D5FE00210846FFF7D1FE00211020FFF73B
:10473000CDFE002505E001210020FFF7C7FE681C23
:10474000C5B2802DF7DB601CC4B2082CE4DB70BD61
:1047500070B5044604F1B0000021FFF7ABFE002164
:104760000846FFF7A7FE00211020FFF7A3FE002553
:1047700005E001210020FFF79DFE681CC5B2802DD9
:10478000F7DB70BD70B5044604F1B0000021FFF7FF
:104790009DFE00210846FFF799FE00211020FFF73B
:1047A00095FE002505E001210020FFF78FFE681C23
:1047B000C5B2802DF7DB70BD70B5002418E004F1A0
:1047C000B0000021FFF776FE00210846FFF772FED9
:1047D00000211020FFF76EFE002505E001210846AC
:1047E000FFF768FE681CC5B2802DF7DB601CC4B201
:1047F000082CE4DB70BD70B5002418E004F1B000B3
:104800000021FFF763FE00210846FFF75FFE00214D
:104810001020FFF75BFE002505E001210846FFF7A9
:1048200055FE681CC5B2802DF7DB601CC4B2082C95
:10483000E4DB70BD2DE9F04707460E4690469946E9
:1048400000250024A8F12000C5B27F2F02DD00273B
:10485000B01CC6B2B9F1080F24D131463846FFF773
:1048600099FE002408E004EB0511F84A505C012190
:10487000FFF720FE601CC4B2082CF4DB701CC1B230
:104880003846FFF787FE002409E004EB05110831E4
:10489000EE4A505C0121FFF70DFE601CC4B2082CEB
:1048A000F3DB12E031463846FFF774FE00240AE0DD
:1048B00005EB4501E64A02EB4101085D0121FFF7E6
:1048C000F9FD601CC4B2062CF2DBBDE8F0872DE9CF
:1048D000F04707460E469046994600250024A8F169
:1048E0002000C5B27F2F02DD0027B01CC6B2B9F18F
:1048F000080F24D131463846FFF760FE002408E057
:1049000004EB0511D14A505C0121FFF7DFFD601C6B
:10491000C4B2082CF4DB701CC1B23846FFF74EFE5F
:10492000002409E004EB05110831C84A505C01215C
:10493000FFF7CCFD601CC4B2082CF3DB12E031465B
:104940003846FFF73BFE00240AE005EB4501C04A6C
:1049500002EB4101085D0121FFF7B8FD601CC4B204
:10496000062CF2DBBDE8F08710B50246012000E01E
:1049700050430B1EA1F10104E1B2F9D110BD10B5F5
:104980000246012000E050430B1EA1F10104E1B2F8
:10499000F9D110BD2DE9F05F06468A4691461D46C5
:1049A0000A9F4FF0000B00242DE0281B401EC1B2CF
:1049B0000A20FFF7D9FFB9FBF0F00A21B0FBF1F2B2
:1049C00001FB1208BBF1000F10D1681EA0420DDDE3
:1049D000B8F1000F08D107FB0461C8B23B462022A2
:1049E0005146FFF727FF0CE04FF0010B08F13001B3
:1049F000CAB207FB0461C8B23B465146FFF71AFF33
:104A000000BF601CC4B2AC42CFDBBDE8F09F2DE913
:104A1000F05F06468A4691461D460A9F4FF0000BFE
:104A200000242DE0281B401EC1B20A20FFF7A7FF7B
:104A3000B9FBF0F00A21B0FBF1F201FB1208BBF167
:104A4000000F10D1681EA0420DDDB8F1000F08D193
:104A500007FB0461C8B23B4620225146FFF737FFEF
:104A60000CE04FF0010B08F13001CAB207FB046102
:104A7000C8B23B465146FFF72AFF00BF601CC4B2D4
:104A8000AC42CFDBBDE8F09F2DE9F04104460F4674
:104A90001546984600260FE0AA5D43463946204653
:104AA000FFF7C8FE04EB0800C4B2782C02DD002436
:104AB000B81CC7B2701CC6B2A85D0028ECD1BDE816
:104AC000F0812DE9F04104460F4615469846002630
:104AD0000FE0AA5D434639462046FFF7F8FE04EB97
:104AE0000800C4B2782C02DD0024B81CC7B2701CC8
:104AF000C6B2A85D0028ECD1BDE8F0812DE9F041F7
:104B000080460F4615461E4639464046FFF742FD91
:104B1000002407E005EB4611085D0121FFF7CAFC00
:104B2000601CC4B2102CF5DB781CC1B24046FFF704
:104B300031FD002409E07100491C05EB0111085DFD
:104B40000121FFF7B7FC601CC4B2102CF3DBBDE8F9
:104B5000F0812DE9F04180460F4615461E46394644
:104B60004046FFF717FD002407E005EB4611085DFE
:104B70000121FFF79FFC601CC4B2072CF5DB781CF9
:104B8000C1B24046FFF706FD002409E07100491C50
:104B900005EB0111085D0121FFF78CFC601CC4B21C
:104BA000072CF3DBBDE8F0812DE9F04105460F4607
:104BB00090461E46002409E005EB0411C8B22346C6
:104BC00042463946FFF79AFF601CC4B2B442F3DB99
:104BD000BDE8F0812DE9F05F06460F4690461C4681
:104BE000DDF828A04FF0000BE11704EB5171C9105C
:104BF000A4EBC10131B92046E11704EB5171C1F3B7
:104C0000C70506E02046E11704EB5171C910491CA5
:104C1000CDB23D4615E029463046FFF7BBFCB14614
:104C20000BE059460BF1010B1AF801000121FFF7C7
:104C300041FC09F1010000F0FF09C145F1DB681CEE
:104C4000C5B2A542E7DBBDE8F09F0000966E000804
:104C50006E6C000808B501210820FBF78DFF4FF4AA
:104C60004050ADF8000010208DF8030003208DF8AF
:104C7000020069467F48FBF7C3FC4FF440517D4872
:104C8000FBF76BFD7C48FDF79AF90021AE20FFF79A
:104C900011FC00210846FFF70DFC00211020FFF752
:104CA00009FC00214020FFF705FC0021B020FFF7A0
:104CB00001FC00218120FFF7FDFB0021FF20FFF711
:104CC000F9FB0021A120FFF7F5FB0021A620FFF74B
:104CD000F1FB0021A820FFF7EDFB00213F20FFF7AB
:104CE000E9FB0021C820FFF7E5FB0021D320FFF7F7
:104CF000E1FB00210846FFF7DDFB0021D520FFF78F
:104D0000D9FB00218020FFF7D5FB0021D820FFF739
:104D1000D1FB00210520FFF7CDFB0021D920FFF7B3
:104D2000C9FB0021F120FFF7C5FB0021DA20FFF7C6
:104D3000C1FB00211220FFF7BDFB0021DB20FFF7A4
:104D4000B9FB00213020FFF7B5FB00218D20FFF7D4
:104D5000B1FB00211420FFF7ADFB0021AF20FFF7CE
:104D6000A9FB08BD08B501210820FBF705FF4FF49A
:104D70004040ADF8000010208DF8030003208DF8AE
:104D8000020069463B48FBF73BFC4FF44041394881
:104D9000FBF7E3FC3848FDF712F90021AE20FFF7DE
:104DA00095FB00210846FFF791FB00211020FFF73B
:104DB0008DFB00214020FFF789FB0021B020FFF789
:104DC00085FB00218120FFF781FB0021FF20FFF7F9
:104DD0007DFB0021A120FFF779FB0021A620FFF732
:104DE00075FB0021A820FFF771FB00213F20FFF792
:104DF0006DFB0021C820FFF769FB0021D320FFF7DE
:104E000065FB00210846FFF761FB0021D520FFF775
:104E10005DFB00218020FFF759FB0021D820FFF720
:104E200055FB00210520FFF751FB0021D920FFF79A
:104E30004DFB0021F120FFF749FB0021DA20FFF7AD
:104E400045FB00211220FFF741FB0021DB20FFF78B
:104E50003DFB00213020FFF739FB00218D20FFF7BB
:104E600035FB00211420FFF731FB0021AF20FFF7B5
:104E70002DFB08BD000C0140A086010008B50121F2
:104E80008020FBF779FE01210802FBF775FE012166
:104E90000820FBF771FE8F20ADF8000028208DF868
:104EA000030003208DF8020069460948FBF7A8FBC0
:104EB0003C20ADF8000069460648FBF7A1FB4FF423
:104EC0000040ADF8000069460348FBF799FB08BDB8
:104ED000001C014000200140000C014008B54FF4C7
:104EE000A060FBF731FA34208DF8000001208DF826
:104EF000010000208DF8020001208DF803006846B3
:104F0000FBF727FA08BD00B585B001211020FBF79B
:104F100033FE0121C804FBF73CFE4FF48060ADF87E
:104F2000100018208DF8130003208DF8120004A93A
:104F30003E48FBF765FB4FF40060ADF8100004201D
:104F40008DF8130004A93948FBF75AFB4FF4E13000
:104F500000900020ADF80400ADF80600ADF80800A0
:104F6000ADF80C000C20ADF80A0069463048FCF79B
:104F7000B8FDFFF7B3FF012240F225512C48FCF7A2
:104F800048FE01212A48FCF738FE05B000BD10B5E7
:104F900040F225512648FCF721FF002844D0244840
:104FA000FCF79CFEC4B2302C02D1002021490870CD
:104FB000312C02D101201F490870322C02D102206D
:104FC0001C490870332C02D103201A490870342C74
:104FD00002D1042017490870352C02D1012016494E
:104FE000C870362C02D1012013490871372C02D128
:104FF000012011494871382C02D101200E498871D5
:10500000712C02D101200C49C871772C02D10120EA
:1050100009490872652C02D1012007494872722C97
:1050200002D101200449887210BD00000010014027
:10503000004C0040BE0000203C02002008B54FF4A8
:10504000A060FBF781F935208DF8000000208DF875
:1050500001008DF8020001208DF803006846FBF77F
:1050600078F908BD00B585B001211020FBF784FD5B
:1050700001212020FBF780FD01210805FBF789FDB8
:105080004FF48050ADF8100018208DF81300032065
:105090008DF8120004A9FA48FBF7B2FA0420ADF823
:1050A00010008DF8130004A9F648FBF7A9FA4FF495
:1050B000165000900020ADF80400ADF80600ADF8E1
:1050C0000800ADF80C000C20ADF80A006946EE4867
:1050D000FCF707FDFFF7B2FF012240F22551EA4835
:1050E000FCF797FD0121E848FCF787FD05B000BDFE
:1050F00010B540F22551E448FCF770FE00287DD041
:10510000E148FCF7EBFDC4B2282C03D10120DF49B4
:10511000087008E0272C06D1DC480078012802D16D
:105120000220DA490870D9480078022808D1D84806
:10513000D84909784454D7480078401CD5490870AC
:10514000D4480078032854D1D0480078022850D1A0
:105150000020CE490870CF490870CD4840783128EA
:1051600007D1CB488078322803D17B20CA490880F8
:105170003CE0C7484078312807D1C54880783328BB
:1051800003D18420C449088030E0C14840783228E7
:1051900007D1BF488078312803D1D520BE49088087
:1051A00024E0BB484078322807D1B94880783328BA
:1051B00003D1E720B849088018E0B5484078332883
:1051C00008D1B3488078312804D14FF49C70B2499B
:1051D00008800BE0AE484078332807D1AC4880788F
:1051E000322803D140F24110AB4908800120AB497D
:1051F0000870632C05D10320A44900E06FE008701B
:1052000008E06F2C06D1A1480078032802D10420C1
:105210009E4908709D480078042808D19C489D4903
:10522000097844549B480078401C9A490870994872
:10523000007802281FD19548007804281BD100204F
:10524000924908709349087091484078312803D1F9
:105250000120934908700EE08D484078322803D130
:1052600002208F49087006E089484078332802D12F
:1052700003208B490870732C03D1052083490870E3
:1052800008E0742C06D181480078052802D1062058
:105290007E4908707D480078062808D17C487D4901
:1052A000097844547B480078401C7A490870794852
:1052B000007803284FD17548007806284BD100208C
:1052C000724908707349087071484078312807D1D5
:1052D0006F488078322803D10120724908703AE083
:1052E0006B484078312807D169488078332803D14A
:1052F00002206C4908702EE065484078322807D1BA
:1053000063488078312803D103206649087022E081
:105310005F484078322807D15D488078332803D130
:1053200004206049087016E059484078332807D1B6
:1053300057488078312803D105205A4908700AE07F
:1053400053484078332806D151488078322802D11A
:1053500006205449087010BD08B55348007801284C
:1053600007D152480078022803D1D520504908803F
:10537000AAE04D480078012808D14C48007803285D
:1053800004D14FF49C704A4908809DE0464800785B
:10539000022807D145480078012803D17B204449E1
:1053A000088091E040480078022808D13F48007802
:1053B000032804D140F241103D49088084E03A4876
:1053C0000078032807D139480078012803D18420C8
:1053D0003749088078E034480078032807D13348FB
:1053E0000078022803D1E720314908806CE02E487C
:1053F000007818B12D480078002865D12A48007837
:1054000030B92A48007818B97B20294908805BE028
:105410002548007838B925480078012803D17B2039
:105420002349088050E02048007838B91F480078A8
:10543000022803D1D5201E49088045E01A4800788B
:1054400040B91A480078032804D14FF49C701849D9
:10545000088039E014480078012806D11348007804
:1054600018B9D520124908802EE00F48007802288C
:1054700020D10E480078E8B97B200D49088023E050
:10548000001001400014014000500040D2000020F4
:10549000CA000020D3000020D400002056000020C5
:1054A000DC000020D6000020D8000020D900002019
:1054B000DA00002009480078032805D10848007860
:1054C00010B984200749088006200423009005486D
:1054D000028819461020FFF75DFA08BDD8000020A9
:1054E000D9000020DA00002008B54FF4E060FAF798
:1054F0002BFF37208DF8000001208DF801008DF87A
:1055000002008DF803006846FAF723FF08BD0EB5C8
:1055100001212020FBF73DFB0920ADF804004720C6
:10552000ADF800000020ADF802006946F948FBF72D
:105530005BFC0121F748FCF779FA01224121F5488B
:10554000FBF7C9FF0121F348FBF7AAFF0EBD10B519
:10555000FFF7CAFFFFF7DBFF10BD10B50121ED48D3
:10556000FCF767FA00287DD00121EA48FCF772FABF
:10557000E9480088401CE8490880E8480068401C69
:10558000E64908600846006842F20F71884202D975
:105590000020E2490860E148006801280AD9DF4894
:1055A0000068032806D20120DD490860DD49C1F802
:1055B000BC0105E00020DA490860DA49C1F8BC0105
:1055C000D5480088632874DD0020D3490880D64878
:1055D0000088401CD4490880D448006860B9002085
:1055E000D3490870D34908600120D349C1F8AC0100
:1055F0000020D24908603FE0CD48007870BB012010
:10560000CB490870CE480078401CCD490870084648
:105610000078012809D1CB490968480000F0DFFC77
:10562000044600F0F2FCC8490860C5480078042828
:1056300014D10120C5490870C54800884FF47A711B
:105640004843C449098801EB4102C2EBC11100EB98
:105650008100B54909880844BF4908800120B44940
:10566000087000E0EDE2B34908600020B249C1F8DB
:10567000AC010120B1490860B848006818B90020A1
:10568000B749087002E00120B5490870B348001D11
:10569000006818B90020B349087002E00120B14940
:1056A0000870AE480830006820B90020AE49087084
:1056B00003E0FDE10120AC490870A8480C30006807
:1056C00018B90020A949087002E00120A749087014
:1056D00096481C38006818B90020A549087002E0F7
:1056E0000120A349087091481838006818B90020B3
:1056F000A049087002E001209E4908708B481438C8
:10570000006818B900209C49087002E001209A49FD
:10571000087086481038006818B90020974908704A
:1057200002E00120954908708848007800286BD174
:105730008E480078002864D18B48007800285DD11D
:105740008F480078012825D18648007810B9844810
:10575000007838B183480078012806D18048007865
:10576000012802D1FEF7EEF93CE27E4800780128DC
:1057700005D17B48007810B9FEF715FA32E2794876
:1057800000780028F0D1764800780128ECD1FEF7A7
:10579000F1FA27E27A4800780028E5D174480078C9
:1057A00010B97448007838B171480078012806D1E2
:1057B00070480078012802D1FEF7C4F912E06C4865
:1057C0000078012805D16B48007810B9FEF7EBF995
:1057D00008E06748007828B966480078012801D1B8
:1057E000FEF7C8FA5F480078012803D05C480078CB
:1057F0000128B9D1012062490870F3E1FEF738FAB7
:10580000F0E1FEF776FAEDE1504800780128ABD1DF
:105810004F4800884FF47A7148434E49098801EB9C
:105820004102C2EBC11100EB81003F4909880844E5
:1058300049490988401A41F28731884268DD514858
:10584000007888B950488089B0F5167F02DDFEF7F0
:1058500079F9C7E14C488089002885D00120494961
:1058600008704A490870BDE146480078012885D192
:1058700046480078012823D145480068401C444927
:1058800008604448006864380968884202D9FEF715
:1058900030FAA7E13E4800683E490968884202D8CC
:1058A000FDF763FE9EE13A4800683A49096888427C
:1058B000A3D902203549087000203549086091E1DC
:1058C00032480078022869D131480068401C3049CC
:1058D00008603148006864380968884202D9FEF7D8
:1058E00031F97FE12A4800682B490968884202D8CB
:1058F000FDF73BFE76E126480068274909688842A3
:10590000A7D903202149087000202149086069E1D6
:105910004EE143E000140040E0000020EC000020D5
:10592000B881214200802142E20000201C812342F4
:10593000F0000020A801234200002242A8012242D8
:10594000F10000209400002030010020F30000202E
:10595000E6000020E4000020F600002008012442B8
:10596000BF000020C0000020C1000020C2000020B5
:10597000C3000020C4000020C5000020C600002095
:105980002C010020F400002060020020FC00002018
:10599000F80000200001002004010020A948007840
:1059A000032823D1A8480068401CA7490860A748DD
:1059B000006864380968884202D9FEF75DFA11E18F
:1059C000A1480068A1490968884202D8FDF7CDFDC9
:1059D00008E19D4800689D49096888428AD90420E9
:1059E00098490870002098490860FBE095480078C5
:1059F000042836D194480068401C934908609448B4
:105A0000006864380968884202D9FEF79BF80EE006
:105A10008D4800688E490968884208D98A4800681C
:105A20008B490968884202D9002087490860894863
:105A300000780128C3D1092082490870864800886F
:105A40004FF47A7148438549098801EB4102C2EB62
:105A5000C11100EB8100824909880844814908602E
:105A6000C0E078480078052823D177480068401CBA
:105A7000754908607C48006864380968884202D922
:105A8000FEF7FAF9AEE07048006877490968884285
:105A900002D8FDF76AFDA5E06B4800687249096805
:105AA000884205D9062067490870002066490860C9
:105AB00098E064480078062823D163480068401CB9
:105AC000614908606948006864380968884202D9F9
:105AD000FEF738F886E05C48006864490968884247
